{
  "_format": "hh-sol-artifact-1",
  "contractName": "DecentralizedIdentity",
  "sourceName": "contracts/DecentralizedIdentity.sol",
  "abi": [
    {
      "inputs": [],
      "stateMutability": "nonpayable",
      "type": "constructor"
    },
    {
      "inputs": [
        {
          "internalType": "address",
          "name": "owner",
          "type": "address"
        }
      ],
      "name": "OwnableInvalidOwner",
      "type": "error"
    },
    {
      "inputs": [
        {
          "internalType": "address",
          "name": "account",
          "type": "address"
        }
      ],
      "name": "OwnableUnauthorizedAccount",
      "type": "error"
    },
    {
      "anonymous": false,
      "inputs": [
        {
          "indexed": true,
          "internalType": "address",
          "name": "userAddress",
          "type": "address"
        },
        {
          "indexed": false,
          "internalType": "string",
          "name": "name",
          "type": "string"
        }
      ],
      "name": "IdentityCreated",
      "type": "event"
    },
    {
      "anonymous": false,
      "inputs": [
        {
          "indexed": true,
          "internalType": "address",
          "name": "userAddress",
          "type": "address"
        },
        {
          "indexed": false,
          "internalType": "string",
          "name": "name",
          "type": "string"
        }
      ],
      "name": "IdentityUpdated",
      "type": "event"
    },
    {
      "anonymous": false,
      "inputs": [
        {
          "indexed": true,
          "internalType": "address",
          "name": "previousOwner",
          "type": "address"
        },
        {
          "indexed": true,
          "internalType": "address",
          "name": "newOwner",
          "type": "address"
        }
      ],
      "name": "OwnershipTransferred",
      "type": "event"
    },
    {
      "inputs": [
        {
          "internalType": "string",
          "name": "_name",
          "type": "string"
        },
        {
          "internalType": "string",
          "name": "_email",
          "type": "string"
        },
        {
          "internalType": "uint256",
          "name": "_age",
          "type": "uint256"
        },
        {
          "internalType": "string",
          "name": "_country",
          "type": "string"
        }
      ],
      "name": "createIdentity",
      "outputs": [],
      "stateMutability": "nonpayable",
      "type": "function"
    },
    {
      "inputs": [],
      "name": "deleteIdentity",
      "outputs": [],
      "stateMutability": "nonpayable",
      "type": "function"
    },
    {
      "inputs": [
        {
          "internalType": "address",
          "name": "_userAddress",
          "type": "address"
        }
      ],
      "name": "getIdentity",
      "outputs": [
        {
          "components": [
            {
              "internalType": "string",
              "name": "name",
              "type": "string"
            },
            {
              "internalType": "string",
              "name": "email",
              "type": "string"
            },
            {
              "internalType": "uint256",
              "name": "age",
              "type": "uint256"
            },
            {
              "internalType": "string",
              "name": "country",
              "type": "string"
            },
            {
              "internalType": "bool",
              "name": "exists",
              "type": "bool"
            }
          ],
          "internalType": "struct DecentralizedIdentity.Identity",
          "name": "",
          "type": "tuple"
        }
      ],
      "stateMutability": "view",
      "type": "function"
    },
    {
      "inputs": [
        {
          "internalType": "address",
          "name": "",
          "type": "address"
        }
      ],
      "name": "identities",
      "outputs": [
        {
          "internalType": "string",
          "name": "name",
          "type": "string"
        },
        {
          "internalType": "string",
          "name": "email",
          "type": "string"
        },
        {
          "internalType": "uint256",
          "name": "age",
          "type": "uint256"
        },
        {
          "internalType": "string",
          "name": "country",
          "type": "string"
        },
        {
          "internalType": "bool",
          "name": "exists",
          "type": "bool"
        }
      ],
      "stateMutability": "view",
      "type": "function"
    },
    {
      "inputs": [],
      "name": "owner",
      "outputs": [
        {
          "internalType": "address",
          "name": "",
          "type": "address"
        }
      ],
      "stateMutability": "view",
      "type": "function"
    },
    {
      "inputs": [
        {
          "internalType": "address",
          "name": "",
          "type": "address"
        }
      ],
      "name": "registeredAddresses",
      "outputs": [
        {
          "internalType": "bool",
          "name": "",
          "type": "bool"
        }
      ],
      "stateMutability": "view",
      "type": "function"
    },
    {
      "inputs": [],
      "name": "renounceOwnership",
      "outputs": [],
      "stateMutability": "nonpayable",
      "type": "function"
    },
    {
      "inputs": [
        {
          "internalType": "address",
          "name": "newOwner",
          "type": "address"
        }
      ],
      "name": "transferOwnership",
      "outputs": [],
      "stateMutability": "nonpayable",
      "type": "function"
    },
    {
      "inputs": [
        {
          "internalType": "string",
          "name": "_name",
          "type": "string"
        },
        {
          "internalType": "string",
          "name": "_email",
          "type": "string"
        },
        {
          "internalType": "uint256",
          "name": "_age",
          "type": "uint256"
        },
        {
          "internalType": "string",
          "name": "_country",
          "type": "string"
        }
      ],
      "name": "updateIdentity",
      "outputs": [],
      "stateMutability": "nonpayable",
      "type": "function"
    }
  ],
  "bytecode": "0x60806040523480156200001157600080fd5b5033600073ffffffffffffffffffffffffffffffffffffffff168173ffffffffffffffffffffffffffffffffffffffff1603620000885760006040517f1e4fbdf70000000000000000000000000000000000000000000000000000000081526004016200007f9190620001a9565b60405180910390fd5b6200009981620000a060201b60201c565b50620001c6565b60008060009054906101000a900473ffffffffffffffffffffffffffffffffffffffff169050816000806101000a81548173ffffffffffffffffffffffffffffffffffffffff021916908373ffffffffffffffffffffffffffffffffffffffff1602179055508173ffffffffffffffffffffffffffffffffffffffff168173ffffffffffffffffffffffffffffffffffffffff167f8be0079c531659141344cd1fd0a4f28419497f9722a3daafe3b4186f6b6457e060405160405180910390a35050565b600073ffffffffffffffffffffffffffffffffffffffff82169050919050565b6000620001918262000164565b9050919050565b620001a38162000184565b82525050565b6000602082019050620001c0600083018462000198565b92915050565b611a7080620001d66000396000f3fe608060405234801561001057600080fd5b50600436106100935760003560e01c80638da5cb5b116100665780638da5cb5b1461011e5780639ce7874b1461013c578063f2fde38b14610146578063f653b81e14610162578063fa02c2af1461019657610093565b80632fea7b81146100985780635b6e0ddf146100c8578063715018a6146100e457806376b22eac146100ee575b600080fd5b6100b260048036038101906100ad9190611056565b6101b2565b6040516100bf91906111cb565b60405180910390f35b6100e260048036038101906100dd919061134e565b610472565b005b6100ec61074e565b005b61010860048036038101906101039190611056565b610762565b6040516101159190611418565b60405180910390f35b610126610782565b6040516101339190611442565b60405180910390f35b6101446107ab565b005b610160600480360381019061015b9190611056565b61091f565b005b61017c60048036038101906101779190611056565b6109a5565b60405161018d9594939291906114b6565b60405180910390f35b6101b060048036038101906101ab919061134e565b610b80565b005b6101ba610f56565b600260008373ffffffffffffffffffffffffffffffffffffffff1673ffffffffffffffffffffffffffffffffffffffff16815260200190815260200160002060009054906101000a900460ff16610246576040517f08c379a000000000000000000000000000000000000000000000000000000000815260040161023d9061156a565b60405180910390fd5b600160008373ffffffffffffffffffffffffffffffffffffffff1673ffffffffffffffffffffffffffffffffffffffff1681526020019081526020016000206040518060a00160405290816000820180546102a0906115b9565b80601f01602080910402602001604051908101604052809291908181526020018280546102cc906115b9565b80156103195780601f106102ee57610100808354040283529160200191610319565b820191906000526020600020905b8154815290600101906020018083116102fc57829003601f168201915b50505050508152602001600182018054610332906115b9565b80601f016020809104026020016040519081016040528092919081815260200182805461035e906115b9565b80156103ab5780601f10610380576101008083540402835291602001916103ab565b820191906000526020600020905b81548152906001019060200180831161038e57829003601f168201915b50505050508152602001600282015481526020016003820180546103ce906115b9565b80601f01602080910402602001604051908101604052809291908181526020018280546103fa906115b9565b80156104475780601f1061041c57610100808354040283529160200191610447565b820191906000526020600020905b81548152906001019060200180831161042a57829003601f168201915b505050505081526020016004820160009054906101000a900460ff1615151515815250509050919050565b600260003373ffffffffffffffffffffffffffffffffffffffff1673ffffffffffffffffffffffffffffffffffffffff16815260200190815260200160002060009054906101000a900460ff16156104ff576040517f08c379a00000000000000000000000000000000000000000000000000000000081526004016104f690611636565b60405180910390fd5b6000845111610543576040517f08c379a000000000000000000000000000000000000000000000000000000000815260040161053a906116a2565b60405180910390fd5b6000835111610587576040517f08c379a000000000000000000000000000000000000000000000000000000000815260040161057e9061170e565b60405180910390fd5b600082116105ca576040517f08c379a00000000000000000000000000000000000000000000000000000000081526004016105c19061177a565b60405180910390fd5b6040518060a0016040528085815260200184815260200183815260200182815260200160011515815250600160003373ffffffffffffffffffffffffffffffffffffffff1673ffffffffffffffffffffffffffffffffffffffff16815260200190815260200160002060008201518160000190816106489190611946565b50602082015181600101908161065e9190611946565b5060408201518160020155606082015181600301908161067e9190611946565b5060808201518160040160006101000a81548160ff0219169083151502179055509050506001600260003373ffffffffffffffffffffffffffffffffffffffff1673ffffffffffffffffffffffffffffffffffffffff16815260200190815260200160002060006101000a81548160ff0219169083151502179055503373ffffffffffffffffffffffffffffffffffffffff167fc935904fde3b784f003631fba58f14c99e3135ec5e11d22997ff5aca198f9474856040516107409190611a18565b60405180910390a250505050565b610756610e03565b6107606000610e8a565b565b60026020528060005260406000206000915054906101000a900460ff1681565b60008060009054906101000a900473ffffffffffffffffffffffffffffffffffffffff16905090565b600260003373ffffffffffffffffffffffffffffffffffffffff1673ffffffffffffffffffffffffffffffffffffffff16815260200190815260200160002060009054906101000a900460ff16610837576040517f08c379a000000000000000000000000000000000000000000000000000000000815260040161082e9061156a565b60405180910390fd5b600160003373ffffffffffffffffffffffffffffffffffffffff1673ffffffffffffffffffffffffffffffffffffffff168152602001908152602001600020600080820160006108879190610f87565b6001820160006108979190610f87565b60028201600090556003820160006108af9190610f87565b6004820160006101000a81549060ff021916905550506000600260003373ffffffffffffffffffffffffffffffffffffffff1673ffffffffffffffffffffffffffffffffffffffff16815260200190815260200160002060006101000a81548160ff021916908315150217905550565b610927610e03565b600073ffffffffffffffffffffffffffffffffffffffff168173ffffffffffffffffffffffffffffffffffffffff16036109995760006040517f1e4fbdf70000000000000000000000000000000000000000000000000000000081526004016109909190611442565b60405180910390fd5b6109a281610e8a565b50565b60016020528060005260406000206000915090508060000180546109c8906115b9565b80601f01602080910402602001604051908101604052809291908181526020018280546109f4906115b9565b8015610a415780601f10610a1657610100808354040283529160200191610a41565b820191906000526020600020905b815481529060010190602001808311610a2457829003601f168201915b505050505090806001018054610a56906115b9565b80601f0160208091040260200160405190810160405280929190818152602001828054610a82906115b9565b8015610acf5780601f10610aa457610100808354040283529160200191610acf565b820191906000526020600020905b815481529060010190602001808311610ab257829003601f168201915b505050505090806002015490806003018054610aea906115b9565b80601f0160208091040260200160405190810160405280929190818152602001828054610b16906115b9565b8015610b635780601f10610b3857610100808354040283529160200191610b63565b820191906000526020600020905b815481529060010190602001808311610b4657829003601f168201915b5050505050908060040160009054906101000a900460ff16905085565b600260003373ffffffffffffffffffffffffffffffffffffffff1673ffffffffffffffffffffffffffffffffffffffff16815260200190815260200160002060009054906101000a900460ff16610c0c576040517f08c379a0000000000000000000000000000000000000000000000000000000008152600401610c039061156a565b60405180910390fd5b6000845111610c50576040517f08c379a0000000000000000000000000000000000000000000000000000000008152600401610c47906116a2565b60405180910390fd5b6000835111610c94576040517f08c379a0000000000000000000000000000000000000000000000000000000008152600401610c8b9061170e565b60405180910390fd5b60008211610cd7576040517f08c379a0000000000000000000000000000000000000000000000000000000008152600401610cce9061177a565b60405180910390fd5b6040518060a0016040528085815260200184815260200183815260200182815260200160011515815250600160003373ffffffffffffffffffffffffffffffffffffffff1673ffffffffffffffffffffffffffffffffffffffff1681526020019081526020016000206000820151816000019081610d559190611946565b506020820151816001019081610d6b9190611946565b50604082015181600201556060820151816003019081610d8b9190611946565b5060808201518160040160006101000a81548160ff0219169083151502179055509050503373ffffffffffffffffffffffffffffffffffffffff167f8b59ec232bae8e23fe031d1cacdaae5d1c57fb36ad6ca568850b6efbfb0d76b085604051610df59190611a18565b60405180910390a250505050565b610e0b610f4e565b73ffffffffffffffffffffffffffffffffffffffff16610e29610782565b73ffffffffffffffffffffffffffffffffffffffff1614610e8857610e4c610f4e565b6040517f118cdaa7000000000000000000000000000000000000000000000000000000008152600401610e7f9190611442565b60405180910390fd5b565b60008060009054906101000a900473ffffffffffffffffffffffffffffffffffffffff169050816000806101000a81548173ffffffffffffffffffffffffffffffffffffffff021916908373ffffffffffffffffffffffffffffffffffffffff1602179055508173ffffffffffffffffffffffffffffffffffffffff168173ffffffffffffffffffffffffffffffffffffffff167f8be0079c531659141344cd1fd0a4f28419497f9722a3daafe3b4186f6b6457e060405160405180910390a35050565b600033905090565b6040518060a00160405280606081526020016060815260200160008152602001606081526020016000151581525090565b508054610f93906115b9565b6000825580601f10610fa55750610fc4565b601f016020900490600052602060002090810190610fc39190610fc7565b5b50565b5b80821115610fe0576000816000905550600101610fc8565b5090565b6000604051905090565b600080fd5b600080fd5b600073ffffffffffffffffffffffffffffffffffffffff82169050919050565b600061102382610ff8565b9050919050565b61103381611018565b811461103e57600080fd5b50565b6000813590506110508161102a565b92915050565b60006020828403121561106c5761106b610fee565b5b600061107a84828501611041565b91505092915050565b600081519050919050565b600082825260208201905092915050565b60005b838110156110bd5780820151818401526020810190506110a2565b60008484015250505050565b6000601f19601f8301169050919050565b60006110e582611083565b6110ef818561108e565b93506110ff81856020860161109f565b611108816110c9565b840191505092915050565b6000819050919050565b61112681611113565b82525050565b60008115159050919050565b6111418161112c565b82525050565b600060a083016000830151848203600086015261116482826110da565b9150506020830151848203602086015261117e82826110da565b9150506040830151611193604086018261111d565b50606083015184820360608601526111ab82826110da565b91505060808301516111c06080860182611138565b508091505092915050565b600060208201905081810360008301526111e58184611147565b905092915050565b600080fd5b600080fd5b7f4e487b7100000000000000000000000000000000000000000000000000000000600052604160045260246000fd5b61122f826110c9565b810181811067ffffffffffffffff8211171561124e5761124d6111f7565b5b80604052505050565b6000611261610fe4565b905061126d8282611226565b919050565b600067ffffffffffffffff82111561128d5761128c6111f7565b5b611296826110c9565b9050602081019050919050565b82818337600083830152505050565b60006112c56112c084611272565b611257565b9050828152602081018484840111156112e1576112e06111f2565b5b6112ec8482856112a3565b509392505050565b600082601f830112611309576113086111ed565b5b81356113198482602086016112b2565b91505092915050565b61132b81611113565b811461133657600080fd5b50565b60008135905061134881611322565b92915050565b6000806000806080858703121561136857611367610fee565b5b600085013567ffffffffffffffff81111561138657611385610ff3565b5b611392878288016112f4565b945050602085013567ffffffffffffffff8111156113b3576113b2610ff3565b5b6113bf878288016112f4565b93505060406113d087828801611339565b925050606085013567ffffffffffffffff8111156113f1576113f0610ff3565b5b6113fd878288016112f4565b91505092959194509250565b6114128161112c565b82525050565b600060208201905061142d6000830184611409565b92915050565b61143c81611018565b82525050565b60006020820190506114576000830184611433565b92915050565b600082825260208201905092915050565b600061147982611083565b611483818561145d565b935061149381856020860161109f565b61149c816110c9565b840191505092915050565b6114b081611113565b82525050565b600060a08201905081810360008301526114d0818861146e565b905081810360208301526114e4818761146e565b90506114f360408301866114a7565b8181036060830152611505818561146e565b90506115146080830184611409565b9695505050505050565b7f4964656e7469747920646f6573206e6f74206578697374000000000000000000600082015250565b600061155460178361145d565b915061155f8261151e565b602082019050919050565b6000602082019050818103600083015261158381611547565b9050919050565b7f4e487b7100000000000000000000000000000000000000000000000000000000600052602260045260246000fd5b600060028204905060018216806115d157607f821691505b6020821081036115e4576115e361158a565b5b50919050565b7f4964656e7469747920616c726561647920657869737473000000000000000000600082015250565b600061162060178361145d565b915061162b826115ea565b602082019050919050565b6000602082019050818103600083015261164f81611613565b9050919050565b7f4e616d652063616e6e6f7420626520656d707479000000000000000000000000600082015250565b600061168c60148361145d565b915061169782611656565b602082019050919050565b600060208201905081810360008301526116bb8161167f565b9050919050565b7f456d61696c2063616e6e6f7420626520656d7074790000000000000000000000600082015250565b60006116f860158361145d565b9150611703826116c2565b602082019050919050565b60006020820190508181036000830152611727816116eb565b9050919050565b7f416765206d7573742062652067726561746572207468616e2030000000000000600082015250565b6000611764601a8361145d565b915061176f8261172e565b602082019050919050565b6000602082019050818103600083015261179381611757565b9050919050565b60008190508160005260206000209050919050565b60006020601f8301049050919050565b600082821b905092915050565b6000600883026117fc7fffffffffffffffffffffffffffffffffffffffffffffffffffffffffffffffff826117bf565b61180686836117bf565b95508019841693508086168417925050509392505050565b6000819050919050565b600061184361183e61183984611113565b61181e565b611113565b9050919050565b6000819050919050565b61185d83611828565b6118716118698261184a565b8484546117cc565b825550505050565b600090565b611886611879565b611891818484611854565b505050565b5b818110156118b5576118aa60008261187e565b600181019050611897565b5050565b601f8211156118fa576118cb8161179a565b6118d4846117af565b810160208510156118e3578190505b6118f76118ef856117af565b830182611896565b50505b505050565b600082821c905092915050565b600061191d600019846008026118ff565b1980831691505092915050565b6000611936838361190c565b9150826002028217905092915050565b61194f82611083565b67ffffffffffffffff811115611968576119676111f7565b5b61197282546115b9565b61197d8282856118b9565b600060209050601f8311600181146119b0576000841561199e578287015190505b6119a8858261192a565b865550611a10565b601f1984166119be8661179a565b60005b828110156119e6578489015182556001820191506020850194506020810190506119c1565b86831015611a0357848901516119ff601f89168261190c565b8355505b6001600288020188555050505b505050505050565b60006020820190508181036000830152611a32818461146e565b90509291505056fea26469706673582212202a94eecf59c8cb31b228ed788997a9e43eec2c380cbb280531f24fa7fa8509ea64736f6c63430008140033",
  "linkReferences": {},
  "deployedLinkReferences": {}
}